{
  "_format": "hh-sol-artifact-1",
  "contractName": "Library",
  "sourceName": "contracts/Library.sol",
  "abi": [
    {
      "inputs": [],
      "stateMutability": "nonpayable",
      "type": "constructor"
    },
    {
      "anonymous": false,
      "inputs": [
        {
          "indexed": false,
          "internalType": "string",
          "name": "name",
          "type": "string"
        },
        {
          "indexed": false,
          "internalType": "uint256",
          "name": "copies",
          "type": "uint256"
        }
      ],
      "name": "AddedBook",
      "type": "event"
    },
    {
      "anonymous": false,
      "inputs": [
        {
          "indexed": false,
          "internalType": "string",
          "name": "name",
          "type": "string"
        },
        {
          "indexed": false,
          "internalType": "uint256",
          "name": "copies",
          "type": "uint256"
        }
      ],
      "name": "AddedCopies",
      "type": "event"
    },
    {
      "anonymous": false,
      "inputs": [
        {
          "indexed": false,
          "internalType": "address",
          "name": "user",
          "type": "address"
        },
        {
          "indexed": false,
          "internalType": "string",
          "name": "name",
          "type": "string"
        }
      ],
      "name": "BorrowBook",
      "type": "event"
    },
    {
      "anonymous": false,
      "inputs": [
        {
          "indexed": false,
          "internalType": "address",
          "name": "sender",
          "type": "address"
        },
        {
          "indexed": false,
          "internalType": "uint256",
          "name": "amount",
          "type": "uint256"
        }
      ],
      "name": "LogLIBUnwrapped",
      "type": "event"
    },
    {
      "anonymous": false,
      "inputs": [
        {
          "indexed": false,
          "internalType": "address",
          "name": "sender",
          "type": "address"
        },
        {
          "indexed": false,
          "internalType": "uint256",
          "name": "amount",
          "type": "uint256"
        }
      ],
      "name": "LogLIBWrapped",
      "type": "event"
    },
    {
      "anonymous": false,
      "inputs": [
        {
          "indexed": true,
          "internalType": "address",
          "name": "previousOwner",
          "type": "address"
        },
        {
          "indexed": true,
          "internalType": "address",
          "name": "newOwner",
          "type": "address"
        }
      ],
      "name": "OwnershipTransferred",
      "type": "event"
    },
    {
      "anonymous": false,
      "inputs": [
        {
          "indexed": false,
          "internalType": "address",
          "name": "user",
          "type": "address"
        },
        {
          "indexed": false,
          "internalType": "string",
          "name": "name",
          "type": "string"
        }
      ],
      "name": "ReturnBook",
      "type": "event"
    },
    {
      "inputs": [],
      "name": "FEE",
      "outputs": [
        {
          "internalType": "uint256",
          "name": "",
          "type": "uint256"
        }
      ],
      "stateMutability": "view",
      "type": "function"
    },
    {
      "inputs": [],
      "name": "LIBToken",
      "outputs": [
        {
          "internalType": "contract LIB",
          "name": "",
          "type": "address"
        }
      ],
      "stateMutability": "view",
      "type": "function"
    },
    {
      "inputs": [
        {
          "internalType": "string",
          "name": "_name",
          "type": "string"
        },
        {
          "internalType": "uint256",
          "name": "_id",
          "type": "uint256"
        },
        {
          "internalType": "uint256",
          "name": "_copies",
          "type": "uint256"
        }
      ],
      "name": "addBook",
      "outputs": [],
      "stateMutability": "nonpayable",
      "type": "function"
    },
    {
      "inputs": [
        {
          "internalType": "uint256",
          "name": "",
          "type": "uint256"
        }
      ],
      "name": "allBookIds",
      "outputs": [
        {
          "internalType": "uint256",
          "name": "",
          "type": "uint256"
        }
      ],
      "stateMutability": "view",
      "type": "function"
    },
    {
      "inputs": [
        {
          "internalType": "uint256",
          "name": "",
          "type": "uint256"
        }
      ],
      "name": "books",
      "outputs": [
        {
          "internalType": "string",
          "name": "name",
          "type": "string"
        },
        {
          "internalType": "uint256",
          "name": "copies",
          "type": "uint256"
        }
      ],
      "stateMutability": "view",
      "type": "function"
    },
    {
      "inputs": [
        {
          "internalType": "uint256",
          "name": "_id",
          "type": "uint256"
        }
      ],
      "name": "borrowBook",
      "outputs": [],
      "stateMutability": "nonpayable",
      "type": "function"
    },
    {
      "inputs": [
        {
          "internalType": "address",
          "name": "",
          "type": "address"
        },
        {
          "internalType": "uint256",
          "name": "",
          "type": "uint256"
        }
      ],
      "name": "borrowedBooks",
      "outputs": [
        {
          "internalType": "bool",
          "name": "",
          "type": "bool"
        }
      ],
      "stateMutability": "view",
      "type": "function"
    },
    {
      "inputs": [],
      "name": "getAllBookIds",
      "outputs": [
        {
          "internalType": "uint256[]",
          "name": "",
          "type": "uint256[]"
        }
      ],
      "stateMutability": "view",
      "type": "function"
    },
    {
      "inputs": [],
      "name": "owner",
      "outputs": [
        {
          "internalType": "address",
          "name": "",
          "type": "address"
        }
      ],
      "stateMutability": "view",
      "type": "function"
    },
    {
      "inputs": [],
      "name": "renounceOwnership",
      "outputs": [],
      "stateMutability": "nonpayable",
      "type": "function"
    },
    {
      "inputs": [
        {
          "internalType": "uint256",
          "name": "_id",
          "type": "uint256"
        }
      ],
      "name": "returnBook",
      "outputs": [],
      "stateMutability": "nonpayable",
      "type": "function"
    },
    {
      "inputs": [
        {
          "internalType": "address",
          "name": "newOwner",
          "type": "address"
        }
      ],
      "name": "transferOwnership",
      "outputs": [],
      "stateMutability": "nonpayable",
      "type": "function"
    },
    {
      "inputs": [
        {
          "internalType": "uint256",
          "name": "value",
          "type": "uint256"
        }
      ],
      "name": "unwrap",
      "outputs": [],
      "stateMutability": "payable",
      "type": "function"
    },
    {
      "inputs": [
        {
          "internalType": "address",
          "name": "",
          "type": "address"
        }
      ],
      "name": "userRegistered",
      "outputs": [
        {
          "internalType": "bool",
          "name": "",
          "type": "bool"
        }
      ],
      "stateMutability": "view",
      "type": "function"
    },
    {
      "inputs": [],
      "name": "wrap",
      "outputs": [],
      "stateMutability": "payable",
      "type": "function"
    },
    {
      "stateMutability": "payable",
      "type": "receive"
    }
  ],
  "bytecode": "0x60a060405267016345785d8a000060805234801561001c57600080fd5b5060006100276100bf565b600080546001600160a01b0319166001600160a01b0383169081178255604051929350917f8be0079c531659141344cd1fd0a4f28419497f9722a3daafe3b4186f6b6457e0908290a35060405161007d906100c3565b604051809103906000f080158015610099573d6000803e3d6000fd5b50600180546001600160a01b0319166001600160a01b03929092169190911790556100d0565b3390565b611b4d806113f483390190565b6080516113006100f46000398061073552806108135280610cbf52506113006000f3fe6080604052600436106100ec5760003560e01c8063bccbc36c1161008a578063d5eb043111610059578063d5eb04311461038a578063de0e9a3e146103ef578063ed7702d31461040c578063f2fde38b14610436576100fb565b8063bccbc36c146102fe578063c57981b514610331578063ca5140c914610358578063d46eb11914610382576100fb565b80637e490a9e116100c65780637e490a9e146101ef57806380d76e82146102195780638da5cb5b1461029c578063a799bb55146102b1576100fb565b80631ba3192b146101005780636874404614610131578063715018a6146101da576100fb565b366100fb576100f9610469565b005b600080fd5b34801561010c57600080fd5b50610115610564565b604080516001600160a01b039092168252519081900360200190f35b34801561013d57600080fd5b5061015b6004803603602081101561015457600080fd5b5035610573565b6040518080602001838152602001828103825284818151815260200191508051906020019080838360005b8381101561019e578181015183820152602001610186565b50505050905090810190601f1680156101cb5780820380516001836020036101000a031916815260200191505b50935050505060405180910390f35b3480156101e657600080fd5b506100f961061a565b3480156101fb57600080fd5b506100f96004803603602081101561021257600080fd5b50356106c6565b34801561022557600080fd5b506100f96004803603606081101561023c57600080fd5b81019060208101813564010000000081111561025757600080fd5b82018360208201111561026957600080fd5b8035906020019184600183028401116401000000008311171561028b57600080fd5b9193509150803590602001356109cc565b3480156102a857600080fd5b50610115610c79565b3480156102bd57600080fd5b506102ea600480360360408110156102d457600080fd5b506001600160a01b038135169060200135610c88565b604080519115158252519081900360200190f35b34801561030a57600080fd5b506102ea6004803603602081101561032157600080fd5b50356001600160a01b0316610ca8565b34801561033d57600080fd5b50610346610cbd565b60408051918252519081900360200190f35b34801561036457600080fd5b506100f96004803603602081101561037b57600080fd5b5035610ce1565b6100f9610469565b34801561039657600080fd5b5061039f610de8565b60408051602080825283518183015283519192839290830191858101910280838360005b838110156103db5781810151838201526020016103c3565b505050509050019250505060405180910390f35b6100f96004803603602081101561040557600080fd5b5035610e8a565b34801561041857600080fd5b506103466004803603602081101561042f57600080fd5b5035611098565b34801561044257600080fd5b506100f96004803603602081101561045957600080fd5b50356001600160a01b03166110b9565b600034116104be576040805162461bcd60e51b815260206004820152601e60248201527f5765206e65656420746f2077726170206174206c656173742031207765690000604482015290519081900360640190fd5b600154604080516340c10f1960e01b815233600482015234602482015290516001600160a01b03909216916340c10f199160448082019260009290919082900301818387803b15801561051057600080fd5b505af1158015610524573d6000803e3d6000fd5b50506040805133815234602082015281517f9c1359f4b53f71481ac276ccdffa0cc71cd40491a5b8636617ecd8e25d42e2b89450908190039091019150a1565b6001546001600160a01b031681565b60046020908152600091825260409182902080548351601f6002600019610100600186161502019093169290920491820184900484028101840190945280845290929183919083018282801561060a5780601f106105df5761010080835404028352916020019161060a565b820191906000526020600020905b8154815290600101906020018083116105ed57829003601f168201915b5050505050908060010154905082565b6106226111bb565b6001600160a01b0316610633610c79565b6001600160a01b03161461067c576040805162461bcd60e51b815260206004820181905260248201526000805160206112ab833981519152604482015290519081900360640190fd5b600080546040516001600160a01b03909116907f8be0079c531659141344cd1fd0a4f28419497f9722a3daafe3b4186f6b6457e0908390a3600080546001600160a01b0319169055565b6000818152600460205260409020600181015461071a576040805162461bcd60e51b815260206004820152600d60248201526c4e6f7420617661696c61626c6560981b604482015290519081900360640190fd5b600154604080516370a0823160e01b815233600482015290517f0000000000000000000000000000000000000000000000000000000000000000926001600160a01b0316916370a08231916024808301926020929190829003018186803b15801561078457600080fd5b505afa158015610798573d6000803e3d6000fd5b505050506040513d60208110156107ae57600080fd5b505110156107f4576040805162461bcd60e51b815260206004820152600e60248201526d2737ba1032b737bab3b4102624a160911b604482015290519081900360640190fd5b600154604080516323b872dd60e01b81523360048201523060248201527f0000000000000000000000000000000000000000000000000000000000000000604482015290516001600160a01b03909216916323b872dd916064808201926020929091908290030181600087803b15801561086d57600080fd5b505af1158015610881573d6000803e3d6000fd5b505050506040513d602081101561089757600080fd5b5050600280820180546001810182556000918252602080832090910180546001600160a01b0319163390811790915582529182526040808220858352909252205460ff16610905573360009081526002602090815260408083208584529091529020805460ff191660011790555b60018181018054600019908101909155604080513380825260208201838152865460029681161561010002909501909416949094049181018290527f81c265986946ec7ae18b8d3bde15701ccd5d8221acbc9c086f8c603d188438c3939285926060830190849080156109b95780601f1061098e576101008083540402835291602001916109b9565b820191906000526020600020905b81548152906001019060200180831161099c57829003601f168201915b5050935050505060405180910390a15050565b6109d46111bb565b6001600160a01b03166109e5610c79565b6001600160a01b031614610a2e576040805162461bcd60e51b815260206004820181905260248201526000805160206112ab833981519152604482015290519081900360640190fd5b60008281526004602052604090206001810154158015610a605750805460026000196101006001841615020190911604155b15610b1857610a708186866111bf565b5060018082018390556005805491820181556000527f036b6384b5eca791c62761152d0c79bb0604c104a5fb6f4eb0703f3154bb3db00183905560408051602081018490528181529081018590527f94d055d37a53d04c9314a2b6c9d1199dc9330c877f88717dd6a030aed2c3b550908690869085908060608101858580828437600083820152604051601f909101601f1916909201829003965090945050505050a1610c72565b80546002600019610100600184161502019091160415801590610bc257508484604051808383808284376040519201829003822086549095508694509192508291849150600260001961010060018416150201909116048015610bb25780601f10610b90576101008083540402835291820191610bb2565b820191906000526020600020905b815481529060010190602001808311610b9e575b5050915050604051809103902014155b15610bfe5760405162461bcd60e51b81526004018080602001828103825260248152602001806112616024913960400191505060405180910390fd5b6001810180548301905560408051602081018490528181529081018590527f7c7185ec2f801251c49a68ac4dade3cac7c3b7177eff595854e98037fce01e74908690869085908060608101858580828437600083820152604051601f909101601f1916909201829003965090945050505050a15b5050505050565b6000546001600160a01b031690565b600260209081526000928352604080842090915290825290205460ff1681565b60036020526000908152604090205460ff1681565b7f000000000000000000000000000000000000000000000000000000000000000081565b33600090815260026020908152604080832084845290915290205460ff16610d3c576040805162461bcd60e51b81526020600482015260096024820152682737ba103a30b5b2b760b91b604482015290519081900360640190fd5b3360008181526002602081815260408084208685528252808420805460ff19169055600482529283902060018181018054820190558451868152928301858152825491821615610100026000190190911693909304938201849052937f6329eadd62914ce279180aa06326775b1521a0c31db9d1b834a3a8dd1680a5629390928592916060830190849080156109b95780601f1061098e576101008083540402835291602001916109b9565b600554606090610e34576040805162461bcd60e51b8152602060048201526012602482015271546865726520617265206e6f20626f6f6b7360701b604482015290519081900360640190fd5b6005805480602002602001604051908101604052809291908181526020018280548015610e8057602002820191906000526020600020905b815481526020019060010190808311610e6c575b5050505050905090565b610e926111bb565b6001600160a01b0316610ea3610c79565b6001600160a01b031614610eec576040805162461bcd60e51b815260206004820181905260248201526000805160206112ab833981519152604482015290519081900360640190fd5b60008111610f41576040805162461bcd60e51b815260206004820181905260248201527f5765206e65656420746f20756e77726170206174206c65617374203120776569604482015290519081900360640190fd5b600154604080516323b872dd60e01b81523360048201523060248201526044810184905290516001600160a01b03909216916323b872dd916064808201926020929091908290030181600087803b158015610f9b57600080fd5b505af1158015610faf573d6000803e3d6000fd5b505050506040513d6020811015610fc557600080fd5b505060015460408051630852cd8d60e31b81526004810184905290516001600160a01b03909216916342966c689160248082019260009290919082900301818387803b15801561101457600080fd5b505af1158015611028573d6000803e3d6000fd5b505060405133925083156108fc02915083906000818181858888f19350505050158015611059573d6000803e3d6000fd5b50604080513381526020810183905281517f434a87dd0568dfbbb4bc8b6b51b072be25ff126809317b293b9ed43aaa84fd0e929181900390910190a150565b600581815481106110a857600080fd5b600091825260209091200154905081565b6110c16111bb565b6001600160a01b03166110d2610c79565b6001600160a01b03161461111b576040805162461bcd60e51b815260206004820181905260248201526000805160206112ab833981519152604482015290519081900360640190fd5b6001600160a01b0381166111605760405162461bcd60e51b81526004018080602001828103825260268152602001806112856026913960400191505060405180910390fd5b600080546040516001600160a01b03808516939216917f8be0079c531659141344cd1fd0a4f28419497f9722a3daafe3b4186f6b6457e091a3600080546001600160a01b0319166001600160a01b0392909216919091179055565b3390565b828054600181600116156101000203166002900490600052602060002090601f0160209004810192826111f5576000855561123b565b82601f1061120e5782800160ff1982351617855561123b565b8280016001018555821561123b579182015b8281111561123b578235825591602001919060010190611220565b5061124792915061124b565b5090565b5b80821115611247576000815560010161124c56fe426f6f6b207769746820746869732069642068617320646966666572656e74206e616d654f776e61626c653a206e6577206f776e657220697320746865207a65726f20616464726573734f776e61626c653a2063616c6c6572206973206e6f7420746865206f776e6572a2646970667358221220105e0eccd563cd51b3683e393b0ccd7d261abe0687977719f761e18af92f8b8664736f6c6343000706003360806040523480156200001157600080fd5b50604080518082018252600d81526c2634b13930b93c902a37b5b2b760991b6020808301918252835180850190945260038452622624a160e91b90840152815191929183918391620000669160049162000223565b5080516200007c90600590602084019062000223565b50506006805461ff001960ff1990911660121716905550620000a96000620000a36200010f565b62000113565b620000d87f9f2df0fed2c77648de5860a4cc508cd0818c85b8b8a1ab4ceeef8d981c8956a6620000a36200010f565b620001077f65d7a28e3265b37a6474929f336521b332c1681b933f6cb9f3376673440d862a620000a36200010f565b5050620002cf565b3390565b6200011f828262000123565b5050565b60008281526020818152604090912062000148918390620009e46200019c821b17901c565b156200011f57620001586200010f565b6001600160a01b0316816001600160a01b0316837f2f8788117e7eff1d82e926ec794901d17c78024a50270940304540a733656f0d60405160405180910390a45050565b6000620001b3836001600160a01b038416620001bc565b90505b92915050565b6000620001ca83836200020b565b6200020257508154600181810184556000848152602080822090930184905584548482528286019093526040902091909155620001b6565b506000620001b6565b60009081526001919091016020526040902054151590565b828054600181600116156101000203166002900490600052602060002090601f0160209004810192826200025b5760008555620002a6565b82601f106200027657805160ff1916838001178555620002a6565b82800160010185558215620002a6579182015b82811115620002a657825182559160200191906001019062000289565b50620002b4929150620002b8565b5090565b5b80821115620002b45760008155600101620002b9565b61186e80620002df6000396000f3fe608060405234801561001057600080fd5b50600436106101a95760003560e01c806370a08231116100f9578063a457c2d711610097578063d539139311610071578063d539139314610357578063d547741f1461035f578063dd62ed3e14610372578063e63ab1e914610385576101a9565b8063a457c2d71461031e578063a9059cbb14610331578063ca15c87314610344576101a9565b80639010d07c116100d35780639010d07c146102db57806391d14854146102fb57806395d89b411461030e578063a217fddf14610316576101a9565b806370a08231146102ad57806379cc6790146102c05780638456cb59146102d3576101a9565b8063313ce567116101665780633f4ba83a116101405780633f4ba83a1461027757806340c10f191461027f57806342966c68146102925780635c975abb146102a5576101a9565b8063313ce5671461023c57806336568abe146102515780633950935114610264576101a9565b806306fdde03146101ae578063095ea7b3146101cc57806318160ddd146101ec57806323b872dd14610201578063248a9ca3146102145780632f2ff15d14610227575b600080fd5b6101b661038d565b6040516101c391906114ef565b60405180910390f35b6101df6101da366004611443565b610423565b6040516101c391906114db565b6101f4610441565b6040516101c391906114e6565b6101df61020f366004611408565b610447565b6101f461022236600461146c565b6104ce565b61023a610235366004611484565b6104e6565b005b61024461054d565b6040516101c39190611542565b61023a61025f366004611484565b610556565b6101df610272366004611443565b6105b7565b61023a610605565b61023a61028d366004611443565b610676565b61023a6102a036600461146c565b6106e7565b6101df6106fb565b6101f46102bb3660046113bc565b610709565b61023a6102ce366004611443565b610724565b61023a610779565b6102ee6102e93660046114a6565b6107e8565b6040516101c391906114c7565b6101df610309366004611484565b610807565b6101b661081f565b6101f4610880565b6101df61032c366004611443565b610885565b6101df61033f366004611443565b6108ed565b6101f461035236600461146c565b610901565b6101f4610918565b61023a61036d366004611484565b61093c565b6101f46103803660046113d6565b610995565b6101f46109c0565b60048054604080516020601f60026000196101006001881615020190951694909404938401819004810282018101909252828152606093909290918301828280156104195780601f106103ee57610100808354040283529160200191610419565b820191906000526020600020905b8154815290600101906020018083116103fc57829003601f168201915b5050505050905090565b60006104376104306109f9565b84846109fd565b5060015b92915050565b60035490565b6000610454848484610ae9565b6104c4846104606109f9565b6104bf85604051806060016040528060288152602001611698602891396001600160a01b038a1660009081526002602052604081209061049e6109f9565b6001600160a01b031681526020810191909152604001600020549190610c46565b6109fd565b5060019392505050565b6000818152602081905260409020600201545b919050565b600082815260208190526040902060020154610504906103096109f9565b61053f5760405162461bcd60e51b815260040180806020018281038252602f815260200180611596602f913960400191505060405180910390fd5b6105498282610cdd565b5050565b60065460ff1690565b61055e6109f9565b6001600160a01b0316816001600160a01b0316146105ad5760405162461bcd60e51b815260040180806020018281038252602f8152602001806117e0602f913960400191505060405180910390fd5b6105498282610d46565b60006104376105c46109f9565b846104bf85600260006105d56109f9565b6001600160a01b03908116825260208083019390935260409182016000908120918c168152925290205490610daf565b6106317f65d7a28e3265b37a6474929f336521b332c1681b933f6cb9f3376673440d862a6103096109f9565b61066c5760405162461bcd60e51b81526004018080602001828103825260398152602001806115e76039913960400191505060405180910390fd5b610674610e09565b565b6106a27f9f2df0fed2c77648de5860a4cc508cd0818c85b8b8a1ab4ceeef8d981c8956a66103096109f9565b6106dd5760405162461bcd60e51b81526004018080602001828103825260368152602001806116c06036913960400191505060405180910390fd5b6105498282610eaa565b6106f86106f26109f9565b82610f9c565b50565b600654610100900460ff1690565b6001600160a01b031660009081526001602052604090205490565b6000610756826040518060600160405280602481526020016116f66024913961074f866103806109f9565b9190610c46565b905061076a836107646109f9565b836109fd565b6107748383610f9c565b505050565b6107a57f65d7a28e3265b37a6474929f336521b332c1681b933f6cb9f3376673440d862a6103096109f9565b6107e05760405162461bcd60e51b81526004018080602001828103825260378152602001806117846037913960400191505060405180910390fd5b610674611098565b6000828152602081905260408120610800908361111d565b9392505050565b60008281526020819052604081206108009083611129565b60058054604080516020601f60026000196101006001881615020190951694909404938401819004810282018101909252828152606093909290918301828280156104195780601f106103ee57610100808354040283529160200191610419565b600081565b60006104376108926109f9565b846104bf856040518060600160405280602581526020016117bb60259139600260006108bc6109f9565b6001600160a01b03908116825260208083019390935260409182016000908120918d16815292529020549190610c46565b60006104376108fa6109f9565b8484610ae9565b600081815260208190526040812061043b9061113e565b7f9f2df0fed2c77648de5860a4cc508cd0818c85b8b8a1ab4ceeef8d981c8956a681565b60008281526020819052604090206002015461095a906103096109f9565b6105ad5760405162461bcd60e51b81526004018080602001828103825260308152602001806116686030913960400191505060405180910390fd5b6001600160a01b03918216600090815260026020908152604080832093909416825291909152205490565b7f65d7a28e3265b37a6474929f336521b332c1681b933f6cb9f3376673440d862a81565b6000610800836001600160a01b038416611149565b3390565b6001600160a01b038316610a425760405162461bcd60e51b81526004018080602001828103825260248152602001806117606024913960400191505060405180910390fd5b6001600160a01b038216610a875760405162461bcd60e51b81526004018080602001828103825260228152602001806116206022913960400191505060405180910390fd5b6001600160a01b03808416600081815260026020908152604080832094871680845294825291829020859055815185815291517f8c5be1e5ebec7d5bd14f71427d1e84f3dd0314c0f7b2291e5b200ac8c7c3b9259281900390910190a3505050565b6001600160a01b038316610b2e5760405162461bcd60e51b815260040180806020018281038252602581526020018061173b6025913960400191505060405180910390fd5b6001600160a01b038216610b735760405162461bcd60e51b81526004018080602001828103825260238152602001806115736023913960400191505060405180910390fd5b610b7e838383611193565b610bbb81604051806060016040528060268152602001611642602691396001600160a01b0386166000908152600160205260409020549190610c46565b6001600160a01b038085166000908152600160205260408082209390935590841681522054610bea9082610daf565b6001600160a01b0380841660008181526001602090815260409182902094909455805185815290519193928716927fddf252ad1be2c89b69c2b068fc378daa952ba7f163c4a11628f55a4df523b3ef92918290030190a3505050565b60008184841115610cd55760405162461bcd60e51b81526004018080602001828103825283818151815260200191508051906020019080838360005b83811015610c9a578181015183820152602001610c82565b50505050905090810190601f168015610cc75780820380516001836020036101000a031916815260200191505b509250505060405180910390fd5b505050900390565b6000828152602081905260409020610cf590826109e4565b1561054957610d026109f9565b6001600160a01b0316816001600160a01b0316837f2f8788117e7eff1d82e926ec794901d17c78024a50270940304540a733656f0d60405160405180910390a45050565b6000828152602081905260409020610d5e908261119e565b1561054957610d6b6109f9565b6001600160a01b0316816001600160a01b0316837ff6391f5c32d9c69d2a47ea670b442974b53935d1edc7fd64eb21e047a839171b60405160405180910390a45050565b600082820183811015610800576040805162461bcd60e51b815260206004820152601b60248201527f536166654d6174683a206164646974696f6e206f766572666c6f770000000000604482015290519081900360640190fd5b610e116106fb565b610e59576040805162461bcd60e51b815260206004820152601460248201527314185d5cd8589b194e881b9bdd081c185d5cd95960621b604482015290519081900360640190fd5b6006805461ff00191690557f5db9ee0a495bf2e6ff9c91a7834c1ba4fdd244a5e8aa4e537bd38aeae4b073aa610e8d6109f9565b604080516001600160a01b039092168252519081900360200190a1565b6001600160a01b038216610f05576040805162461bcd60e51b815260206004820152601f60248201527f45524332303a206d696e7420746f20746865207a65726f206164647265737300604482015290519081900360640190fd5b610f1160008383611193565b600354610f1e9082610daf565b6003556001600160a01b038216600090815260016020526040902054610f449082610daf565b6001600160a01b03831660008181526001602090815260408083209490945583518581529351929391927fddf252ad1be2c89b69c2b068fc378daa952ba7f163c4a11628f55a4df523b3ef9281900390910190a35050565b6001600160a01b038216610fe15760405162461bcd60e51b815260040180806020018281038252602181526020018061171a6021913960400191505060405180910390fd5b610fed82600083611193565b61102a816040518060600160405280602281526020016115c5602291396001600160a01b0385166000908152600160205260409020549190610c46565b6001600160a01b03831660009081526001602052604090205560035461105090826111b3565b6003556040805182815290516000916001600160a01b038516917fddf252ad1be2c89b69c2b068fc378daa952ba7f163c4a11628f55a4df523b3ef9181900360200190a35050565b6110a06106fb565b156110e5576040805162461bcd60e51b815260206004820152601060248201526f14185d5cd8589b194e881c185d5cd95960821b604482015290519081900360640190fd5b6006805461ff0019166101001790557f62e78cea01bee320cd4e420270b5ea74000d11b0c9f74754ebdbfc544b05a258610e8d6109f9565b60006108008383611210565b6000610800836001600160a01b038416611274565b600061043b8261128c565b60006111558383611274565b61118b5750815460018181018455600084815260208082209093018490558454848252828601909352604090209190915561043b565b50600061043b565b610774838383611290565b6000610800836001600160a01b0384166112df565b60008282111561120a576040805162461bcd60e51b815260206004820152601e60248201527f536166654d6174683a207375627472616374696f6e206f766572666c6f770000604482015290519081900360640190fd5b50900390565b815460009082106112525760405162461bcd60e51b81526004018080602001828103825260228152602001806115516022913960400191505060405180910390fd5b82600001828154811061126157fe5b9060005260206000200154905092915050565b60009081526001919091016020526040902054151590565b5490565b61129b838383610774565b6112a36106fb565b156107745760405162461bcd60e51b815260040180806020018281038252602a81526020018061180f602a913960400191505060405180910390fd5b6000818152600183016020526040812054801561139b578354600019808301919081019060009087908390811061131257fe5b906000526020600020015490508087600001848154811061132f57fe5b60009182526020808320909101929092558281526001898101909252604090209084019055865487908061135f57fe5b6001900381819060005260206000200160009055905586600101600087815260200190815260200160002060009055600194505050505061043b565b600091505061043b565b80356001600160a01b03811681146104e157600080fd5b6000602082840312156113cd578081fd5b610800826113a5565b600080604083850312156113e8578081fd5b6113f1836113a5565b91506113ff602084016113a5565b90509250929050565b60008060006060848603121561141c578081fd5b611425846113a5565b9250611433602085016113a5565b9150604084013590509250925092565b60008060408385031215611455578182fd5b61145e836113a5565b946020939093013593505050565b60006020828403121561147d578081fd5b5035919050565b60008060408385031215611496578182fd5b823591506113ff602084016113a5565b600080604083850312156114b8578182fd5b50508035926020909101359150565b6001600160a01b0391909116815260200190565b901515815260200190565b90815260200190565b6000602080835283518082850152825b8181101561151b578581018301518582016040015282016114ff565b8181111561152c5783604083870101525b50601f01601f1916929092016040019392505050565b60ff9190911681526020019056fe456e756d657261626c655365743a20696e646578206f7574206f6620626f756e647345524332303a207472616e7366657220746f20746865207a65726f2061646472657373416363657373436f6e74726f6c3a2073656e646572206d75737420626520616e2061646d696e20746f206772616e7445524332303a206275726e20616d6f756e7420657863656564732062616c616e636545524332305072657365744d696e7465725061757365723a206d75737420686176652070617573657220726f6c6520746f20756e706175736545524332303a20617070726f766520746f20746865207a65726f206164647265737345524332303a207472616e7366657220616d6f756e7420657863656564732062616c616e6365416363657373436f6e74726f6c3a2073656e646572206d75737420626520616e2061646d696e20746f207265766f6b6545524332303a207472616e7366657220616d6f756e74206578636565647320616c6c6f77616e636545524332305072657365744d696e7465725061757365723a206d7573742068617665206d696e74657220726f6c6520746f206d696e7445524332303a206275726e20616d6f756e74206578636565647320616c6c6f77616e636545524332303a206275726e2066726f6d20746865207a65726f206164647265737345524332303a207472616e736665722066726f6d20746865207a65726f206164647265737345524332303a20617070726f76652066726f6d20746865207a65726f206164647265737345524332305072657365744d696e7465725061757365723a206d75737420686176652070617573657220726f6c6520746f20706175736545524332303a2064656372656173656420616c6c6f77616e63652062656c6f77207a65726f416363657373436f6e74726f6c3a2063616e206f6e6c792072656e6f756e636520726f6c657320666f722073656c6645524332305061757361626c653a20746f6b656e207472616e73666572207768696c6520706175736564a26469706673582212207370bbe99ea88a2cfe3092b996e6e0ce7ec5ff304451b9239c7c59034156421e64736f6c63430007060033",
  "linkReferences": {},
  "deployedLinkReferences": {}
}